{
  "_format": "hh-sol-artifact-1",
  "contractName": "Voting",
  "sourceName": "contracts/Voting.sol",
  "abi": [
    {
      "inputs": [
        {
          "internalType": "address",
          "name": "_owner",
          "type": "address"
        },
        {
          "internalType": "string",
          "name": "_title",
          "type": "string"
        },
        {
          "internalType": "string",
          "name": "_description",
          "type": "string"
        },
        {
          "internalType": "uint256",
          "name": "_noOfCandidates",
          "type": "uint256"
        }
      ],
      "name": "createElection",
      "outputs": [
        {
          "internalType": "uint256",
          "name": "",
          "type": "uint256"
        }
      ],
      "stateMutability": "nonpayable",
      "type": "function"
    },
    {
      "inputs": [
        {
          "internalType": "uint256",
          "name": "",
          "type": "uint256"
        }
      ],
      "name": "elections",
      "outputs": [
        {
          "internalType": "address",
          "name": "owner",
          "type": "address"
        },
        {
          "internalType": "string",
          "name": "title",
          "type": "string"
        },
        {
          "internalType": "string",
          "name": "description",
          "type": "string"
        },
        {
          "internalType": "uint256",
          "name": "votesCollected",
          "type": "uint256"
        },
        {
          "internalType": "uint256",
          "name": "votesCollectedInETH",
          "type": "uint256"
        }
      ],
      "stateMutability": "view",
      "type": "function"
    },
    {
      "inputs": [],
      "name": "getElections",
      "outputs": [
        {
          "components": [
            {
              "internalType": "address",
              "name": "owner",
              "type": "address"
            },
            {
              "internalType": "string",
              "name": "title",
              "type": "string"
            },
            {
              "internalType": "string",
              "name": "description",
              "type": "string"
            },
            {
              "internalType": "uint256",
              "name": "votesCollected",
              "type": "uint256"
            },
            {
              "internalType": "uint256",
              "name": "votesCollectedInETH",
              "type": "uint256"
            },
            {
              "internalType": "uint256[]",
              "name": "votesPerCandidate",
              "type": "uint256[]"
            },
            {
              "internalType": "uint256[]",
              "name": "votesInETH",
              "type": "uint256[]"
            }
          ],
          "internalType": "struct Voting.Election[]",
          "name": "",
          "type": "tuple[]"
        }
      ],
      "stateMutability": "view",
      "type": "function"
    },
    {
      "inputs": [],
      "name": "numberOfElections",
      "outputs": [
        {
          "internalType": "uint256",
          "name": "",
          "type": "uint256"
        }
      ],
      "stateMutability": "view",
      "type": "function"
    },
    {
      "inputs": [
        {
          "internalType": "uint256",
          "name": "_electionID",
          "type": "uint256"
        },
        {
          "internalType": "uint256",
          "name": "_candidateID",
          "type": "uint256"
        }
      ],
      "name": "voteToElection",
      "outputs": [],
      "stateMutability": "payable",
      "type": "function"
    }
  ],
  "bytecode": "0x6080604052600060015534801561001557600080fd5b5061139e806100256000396000f3fe60806040526004361061004a5760003560e01c80635e6fef011461004f5780639f3a7f5214610090578063b5ec5854146100bb578063c68bbaf8146100d7578063cdc389f614610114575b600080fd5b34801561005b57600080fd5b50610076600480360381019061007191906108c1565b61013f565b6040516100879594939291906109ce565b60405180910390f35b34801561009c57600080fd5b506100a56102a5565b6040516100b29190610cb9565b60405180910390f35b6100d560048036038101906100d09190610cdb565b6105a8565b005b3480156100e357600080fd5b506100fe60048036038101906100f99190610e7c565b61070e565b60405161010b9190610f1b565b60405180910390f35b34801561012057600080fd5b5061012961081e565b6040516101369190610f1b565b60405180910390f35b60006020528060005260406000206000915090508060000160009054906101000a900473ffffffffffffffffffffffffffffffffffffffff169080600101805461018890610f65565b80601f01602080910402602001604051908101604052809291908181526020018280546101b490610f65565b80156102015780601f106101d657610100808354040283529160200191610201565b820191906000526020600020905b8154815290600101906020018083116101e457829003601f168201915b50505050509080600201805461021690610f65565b80601f016020809104026020016040519081016040528092919081815260200182805461024290610f65565b801561028f5780601f106102645761010080835404028352916020019161028f565b820191906000526020600020905b81548152906001019060200180831161027257829003601f168201915b5050505050908060030154908060040154905085565b6060600060015467ffffffffffffffff8111156102c5576102c4610d51565b5b6040519080825280602002602001820160405280156102fe57816020015b6102eb610824565b8152602001906001900390816102e35790505b50905060005b6001548110156105a05760008060008381526020019081526020016000209050806040518060e00160405290816000820160009054906101000a900473ffffffffffffffffffffffffffffffffffffffff1673ffffffffffffffffffffffffffffffffffffffff1673ffffffffffffffffffffffffffffffffffffffff16815260200160018201805461039690610f65565b80601f01602080910402602001604051908101604052809291908181526020018280546103c290610f65565b801561040f5780601f106103e45761010080835404028352916020019161040f565b820191906000526020600020905b8154815290600101906020018083116103f257829003601f168201915b5050505050815260200160028201805461042890610f65565b80601f016020809104026020016040519081016040528092919081815260200182805461045490610f65565b80156104a15780601f10610476576101008083540402835291602001916104a1565b820191906000526020600020905b81548152906001019060200180831161048457829003601f168201915b5050505050815260200160038201548152602001600482015481526020016005820180548060200260200160405190810160405280929190818152602001828054801561050d57602002820191906000526020600020905b8154815260200190600101908083116104f9575b505050505081526020016006820180548060200260200160405190810160405280929190818152602001828054801561056557602002820191906000526020600020905b815481526020019060010190808311610551575b50505050508152505083838151811061058157610580610f96565b5b602002602001018190525050808061059890610ff4565b915050610304565b508091505090565b60003490506000806000858152602001908152602001600020905060018160050184815481106105db576105da610f96565b5b90600052602060002001546105f0919061103c565b81600501848154811061060657610605610f96565b5b906000526020600020018190555060018160030154610625919061103c565b81600301819055508060060182908060018154018082558091505060019003906000526020600020016000909190919091505560008160000160009054906101000a900473ffffffffffffffffffffffffffffffffffffffff1673ffffffffffffffffffffffffffffffffffffffff16836040516106a2906110a1565b60006040518083038185875af1925050503d80600081146106df576040519150601f19603f3d011682016040523d82523d6000602084013e6106e4565b606091505b505090508015610707578282600401546106fe919061103c565b82600401819055505b5050505050565b60008060008060015481526020019081526020016000209050858160000160006101000a81548173ffffffffffffffffffffffffffffffffffffffff021916908373ffffffffffffffffffffffffffffffffffffffff1602179055508481600101908161077b9190611262565b508381600201908161078d9190611262565b50600081600301819055506000816004018190555060005b838110156107ec57816005016000908060018154018082558091505060019003906000526020600020016000909190919091505580806107e490610ff4565b9150506107a5565b506001600081548092919061080090610ff4565b9190505550600180546108139190611334565b915050949350505050565b60015481565b6040518060e00160405280600073ffffffffffffffffffffffffffffffffffffffff1681526020016060815260200160608152602001600081526020016000815260200160608152602001606081525090565b6000604051905090565b600080fd5b600080fd5b6000819050919050565b61089e8161088b565b81146108a957600080fd5b50565b6000813590506108bb81610895565b92915050565b6000602082840312156108d7576108d6610881565b5b60006108e5848285016108ac565b91505092915050565b600073ffffffffffffffffffffffffffffffffffffffff82169050919050565b6000610919826108ee565b9050919050565b6109298161090e565b82525050565b600081519050919050565b600082825260208201905092915050565b60005b8381101561096957808201518184015260208101905061094e565b60008484015250505050565b6000601f19601f8301169050919050565b60006109918261092f565b61099b818561093a565b93506109ab81856020860161094b565b6109b481610975565b840191505092915050565b6109c88161088b565b82525050565b600060a0820190506109e36000830188610920565b81810360208301526109f58187610986565b90508181036040830152610a098186610986565b9050610a1860608301856109bf565b610a2560808301846109bf565b9695505050505050565b600081519050919050565b600082825260208201905092915050565b6000819050602082019050919050565b610a648161090e565b82525050565b600082825260208201905092915050565b6000610a868261092f565b610a908185610a6a565b9350610aa081856020860161094b565b610aa981610975565b840191505092915050565b610abd8161088b565b82525050565b600081519050919050565b600082825260208201905092915050565b6000819050602082019050919050565b6000610afb8383610ab4565b60208301905092915050565b6000602082019050919050565b6000610b1f82610ac3565b610b298185610ace565b9350610b3483610adf565b8060005b83811015610b65578151610b4c8882610aef565b9750610b5783610b07565b925050600181019050610b38565b5085935050505092915050565b600060e083016000830151610b8a6000860182610a5b565b5060208301518482036020860152610ba28282610a7b565b91505060408301518482036040860152610bbc8282610a7b565b9150506060830151610bd16060860182610ab4565b506080830151610be46080860182610ab4565b5060a083015184820360a0860152610bfc8282610b14565b91505060c083015184820360c0860152610c168282610b14565b9150508091505092915050565b6000610c2f8383610b72565b905092915050565b6000602082019050919050565b6000610c4f82610a2f565b610c598185610a3a565b935083602082028501610c6b85610a4b565b8060005b85811015610ca75784840389528151610c888582610c23565b9450610c9383610c37565b925060208a01995050600181019050610c6f565b50829750879550505050505092915050565b60006020820190508181036000830152610cd38184610c44565b905092915050565b60008060408385031215610cf257610cf1610881565b5b6000610d00858286016108ac565b9250506020610d11858286016108ac565b9150509250929050565b610d248161090e565b8114610d2f57600080fd5b50565b600081359050610d4181610d1b565b92915050565b600080fd5b600080fd5b7f4e487b7100000000000000000000000000000000000000000000000000000000600052604160045260246000fd5b610d8982610975565b810181811067ffffffffffffffff82111715610da857610da7610d51565b5b80604052505050565b6000610dbb610877565b9050610dc78282610d80565b919050565b600067ffffffffffffffff821115610de757610de6610d51565b5b610df082610975565b9050602081019050919050565b82818337600083830152505050565b6000610e1f610e1a84610dcc565b610db1565b905082815260208101848484011115610e3b57610e3a610d4c565b5b610e46848285610dfd565b509392505050565b600082601f830112610e6357610e62610d47565b5b8135610e73848260208601610e0c565b91505092915050565b60008060008060808587031215610e9657610e95610881565b5b6000610ea487828801610d32565b945050602085013567ffffffffffffffff811115610ec557610ec4610886565b5b610ed187828801610e4e565b935050604085013567ffffffffffffffff811115610ef257610ef1610886565b5b610efe87828801610e4e565b9250506060610f0f878288016108ac565b91505092959194509250565b6000602082019050610f3060008301846109bf565b92915050565b7f4e487b7100000000000000000000000000000000000000000000000000000000600052602260045260246000fd5b60006002820490506001821680610f7d57607f821691505b602082108103610f9057610f8f610f36565b5b50919050565b7f4e487b7100000000000000000000000000000000000000000000000000000000600052603260045260246000fd5b7f4e487b7100000000000000000000000000000000000000000000000000000000600052601160045260246000fd5b6000610fff8261088b565b91507fffffffffffffffffffffffffffffffffffffffffffffffffffffffffffffffff820361103157611030610fc5565b5b600182019050919050565b60006110478261088b565b91506110528361088b565b925082820190508082111561106a57611069610fc5565b5b92915050565b600081905092915050565b50565b600061108b600083611070565b91506110968261107b565b600082019050919050565b60006110ac8261107e565b9150819050919050565b60008190508160005260206000209050919050565b60006020601f8301049050919050565b600082821b905092915050565b6000600883026111187fffffffffffffffffffffffffffffffffffffffffffffffffffffffffffffffff826110db565b61112286836110db565b95508019841693508086168417925050509392505050565b6000819050919050565b600061115f61115a6111558461088b565b61113a565b61088b565b9050919050565b6000819050919050565b61117983611144565b61118d61118582611166565b8484546110e8565b825550505050565b600090565b6111a2611195565b6111ad818484611170565b505050565b5b818110156111d1576111c660008261119a565b6001810190506111b3565b5050565b601f821115611216576111e7816110b6565b6111f0846110cb565b810160208510156111ff578190505b61121361120b856110cb565b8301826111b2565b50505b505050565b600082821c905092915050565b60006112396000198460080261121b565b1980831691505092915050565b60006112528383611228565b9150826002028217905092915050565b61126b8261092f565b67ffffffffffffffff81111561128457611283610d51565b5b61128e8254610f65565b6112998282856111d5565b600060209050601f8311600181146112cc57600084156112ba578287015190505b6112c48582611246565b86555061132c565b601f1984166112da866110b6565b60005b82811015611302578489015182556001820191506020850194506020810190506112dd565b8683101561131f578489015161131b601f891682611228565b8355505b6001600288020188555050505b505050505050565b600061133f8261088b565b915061134a8361088b565b925082820390508181111561136257611361610fc5565b5b9291505056fea2646970667358221220816d652ff5159559cbe87ff333631d18c520477e46566e256e7b3d448906f1ea64736f6c63430008120033",
  "linkReferences": {},
  "deployedLinkReferences": {}
}